:100000000C9434000C9451000C9451000C94510049
:100010000C9451000C9451000C9451000C9451001C
:100020000C9451000C9451000C9451000C9451000C
:100030000C9451000C9451000C9453000C945100FA
:100040000C9451000C9451000C9451000C945100EC
:100050000C9451000C9451000C9451000C945100DC
:100060000C9451000C94510011241FBECFEFD8E026
:10007000DEBFCDBF11E0A0E0B1E0EAEEF0E002C0EB
:1000800005900D92A030B107D9F711E0A0E0B1E0E2
:1000900001C01D92A130B107E1F70E9465000C94E8
:1000A00073000C9400001F920F920FB60F92112450
:1000B0008F939F9385B194E0892785B99F918F9104
:1000C0000F900FBE0F901F90189581E084BD84E0C3
:1000D00085BD92E090936E0084B990E29AB985B99B
:0A00E0009BB97894FFCFF894FFCF8E
:00000001FF
