:100000000C9434000C9451000C9451000C94510049
:100010000C9451000C9451000C9451000C9451001C
:100020000C9451000C9451000C9451000C9451000C
:100030000C9451000C9451000C9451000C945100FC
:100040000C9451000C9451000C9451000C945100EC
:100050000C9451000C9451000C9451000C945100DC
:100060000C9451000C94510011241FBECFEFD8E026
:10007000DEBFCDBF11E0A0E0B1E0E2E3F1E002C0FD
:1000800005900D92A030B107D9F711E0A0E0B1E0E2
:1000900001C01D92A030B107E1F70E9453000C94FB
:1000A00097000C940000559A569A83EF84BD89E01E
:1000B00085BD8FEF87BD80E888BD789420E030E073
:1000C000E4E6F0E081E6283A380711F420E030E079
:1000D000C901BF010E94700067BD2F5F3F4FF2CF83
:1000E00097FB092E07260AD077FD04D00CD006D046
:1000F00000201AF4709561957F4F0895F6F790955A
:1001000081959F4F0895AA1BBB1B51E107C0AA1FF1
:10011000BB1FA617B70710F0A61BB70B881F991FA8
:100120005A95A9F780959095BC01CD010895F89452
:02013000FFCFFF
:00000001FF
