:100000000C9434000C9451000C9451000C94510049
:100010000C9451000C9451000C9451000C9451001C
:100020000C9451000C9451000C9451000C9451000C
:100030000C9451000C9451000C9451000C945100FC
:100040000C9451000C9451000C9414010C94CD00AC
:100050000C9451000C9451000C9451000C945100DC
:100060000C9451000C94510011241FBECFEFD8E026
:10007000DEBFCDBF11E0A0E0B1E0E6E6F3E002C0F4
:1000800005900D92A830B107D9F711E0A8E0B1E0D2
:1000900001C01D92AC34B107E1F70E9441010C94FC
:1000A000B1010C9400001092C50085E08093C4005B
:1000B0001092C00088E98093C10010924B01109209
:1000C0002A01109209011092080108959091C1002F
:1000D00095FF06C020914B0190912A012917B1F399
:1000E000E0912A01F0E0E55DFE4F80838091C10040
:1000F0008F7D8093C10080912A018F5F8F718093E3
:100100002A018091C10080628093C1000895FF920E
:100110000F931F93CF93DF93CDB7DEB728970FB61A
:10012000F894DEBF0FBECDBF8E010F5F1F4FB80129
:100130004AE050E00E946C01FF2403C00E94660068
:10014000F394F801EF0DF11D80818823B9F78F2D0D
:1001500028960FB6F894DEBF0FBECDBFDF91CF91CA
:100160001F910F91FF9008950F931F93CF93DF93EB
:100170000F92CDB7DEB78C0108C0F80181918F01D5
:1001800069830E946600698161506623B1F70F9010
:10019000DF91CF911F910F9108951F920F920FB68B
:1001A0000F9211248F939F93EF93FF93E0914B0154
:1001B000F0E0E55DFE4F80818093C60080914B01A9
:1001C0008F5F8F7180934B0190914B0180912A0139
:1001D000981729F48091C1008F7D8093C100FF9111
:1001E000EF919F918F910F900FBE0F901F901895D8
:1001F0008091080190910901891B0895809109015E
:10020000EAE0F1E0E80FF11D8081E1ECF0E090819F
:100210009F779083909109019F5F9F71909309014F
:1002200090819068908308951F920F920FB60F925D
:1002300011248F939F93EF93FF93909108018091E6
:10024000C600EAE0F1E0E90FF11D8083809108012A
:100250008F5F8F7180930801FF91EF919F918F9134
:100260000F900FBE0F901F901895CF93DF93EC0166
:1002700002C00E94660088818823D9F7DF91CF9160
:100280000895CF93DF93CDB7DEB7C054D0400FB6FB
:10029000F894DEBF0FBECDBF569A0E9453007894EB
:1002A00010E4CE01019660E071E00E946501CE018C
:1002B00001960E94350183EC99E00197F1F700C0A7
:1002C00000008BB181278BB9ECCFFB01DC010190E1
:1002D0000D920020E1F70895FB019F01E894423060
:1002E000C4F04532B4F44A3029F497FB1EF49095DB
:1002F00081959F4F642F77270E949D01805D8A33EF
:100300000CF0895D8193CB010097A1F716F45DE2B3
:1003100051931082C9010C948D01DC01FC01672FFF
:1003200071917723E1F7329704C07C916D937083CC
:100330006291AE17BF07C8F30895AA1BBB1B51E11A
:1003400007C0AA1FBB1FA617B70710F0A61BB70B45
:10035000881F991F5A95A9F780959095BC01CD01EA
:060360000895F894FFCFA0
:080366007069796F0D0A0000B7
:00000001FF
