:100000000C9434000C9451000C9451000C94510049
:100010000C9451000C9451000C9451000C9451001C
:100020000C9451000C9451000C9451000C9451000C
:100030000C9451000C9451000C9451000C945100FC
:100040000C9451000C9451000C9414010C94CD00AC
:100050000C9451000C9451000C9451000C945100DC
:100060000C9451000C94510011241FBECFEFD8E026
:10007000DEBFCDBF11E0A0E0B1E0EAE3F3E002C0F3
:1000800005900D92A030B107D9F711E0A0E0B1E0E2
:1000900001C01D92A434B107E1F70E9441010C9404
:1000A0009B010C9400001092C50085E08093C40071
:1000B0001092C00088E98093C10010924301109211
:1000C0002201109201011092000108959091C10047
:1000D00095FF06C020914301909122012917B1F3A9
:1000E000E0912201F0E0ED5DFE4F80838091C10040
:1000F0008F7D8093C100809122018F5F8F718093EB
:1001000022018091C10080628093C1000895FF9216
:100110000F931F93CF93DF93CDB7DEB728970FB61A
:10012000F894DEBF0FBECDBF8E010F5F1F4FB80129
:100130004AE050E00E945601FF2403C00E9466007E
:10014000F394F801EF0DF11D80818823B9F78F2D0D
:1001500028960FB6F894DEBF0FBECDBFDF91CF91CA
:100160001F910F91FF9008950F931F93CF93DF93EB
:100170000F92CDB7DEB78C0108C0F80181918F01D5
:1001800069830E946600698161506623B1F70F9010
:10019000DF91CF911F910F9108951F920F920FB68B
:1001A0000F9211248F939F93EF93FF93E09143015C
:1001B000F0E0ED5DFE4F80818093C60080914301A9
:1001C0008F5F8F7180934301909143018091220151
:1001D000981729F48091C1008F7D8093C100FF9111
:1001E000EF919F918F910F900FBE0F901F901895D8
:1001F0008091000190910101891B08958091010176
:10020000E2E0F1E0E80FF11D8081E1ECF0E09081A7
:100210009F779083909101019F5F9F71909301015F
:1002200090819068908308951F920F920FB60F925D
:1002300011248F939F93EF93FF93909100018091EE
:10024000C600E2E0F1E0E90FF11D8083809100013A
:100250008F5F8F7180930001FF91EF919F918F913C
:100260000F900FBE0F901F901895CF93DF93EC0166
:1002700002C00E94660089918823D9F7DF91CF914F
:100280000895569A0E9453007894C0E481E60E9433
:1002900066008FE39DE0A3E081509040A040E1F72D
:1002A00000C000008BB18C278BB9F0CFFB019F0100
:1002B000E8944230C4F04532B4F44A3029F497FB54
:1002C0001EF4909581959F4F642F77270E94870198
:1002D000805D8A330CF0895D8193CB010097A1F793
:1002E00016F45DE251931082C9010C947701DC0190
:1002F000FC01672F71917723E1F7329704C07C915D
:100300006D9370836291AE17BF07C8F30895AA1B5F
:10031000BB1B51E107C0AA1FBB1FA617B70710F0F0
:10032000A61BB70B881F991F5A95A9F78095909522
:0A033000BC01CD010895F894FFCF41
:00000001FF
