:100000000C9434000C9451000C9451000C94510049
:100010000C9451000C9451000C9451000C9451001C
:100020000C9451000C9451000C9451000C9451000C
:100030000C9451000C9451000C9451000C945100FC
:100040000C9451000C9451000C9414010C94CD00AC
:100050000C9451000C9451000C9451000C945100DC
:100060000C9451000C94510011241FBECFEFD8E026
:10007000DEBFCDBF11E0A0E0B1E0E2E4F9E002C0F4
:1000800005900D92A630B107D9F711E0A6E0B1E0D6
:1000900001C01D92AA34B107E1F70E9441010C94FE
:1000A0009F040C9400001092C50085E08093C4006A
:1000B0001092C00088E98093C1001092490110920B
:1000C0002801109207011092060108959091C10035
:1000D00095FF06C020914901909128012917B1F39D
:1000E000E0912801F0E0E75DFE4F80838091C10040
:1000F0008F7D8093C100809128018F5F8F718093E5
:1001000028018091C10080628093C1000895FF9210
:100110000F931F93CF93DF93CDB7DEB728970FB61A
:10012000F894DEBF0FBECDBF8E010F5F1F4FB80129
:100130004AE050E00E948301FF2403C00E94660051
:10014000F394F801EF0DF11D80818823B9F78F2D0D
:1001500028960FB6F894DEBF0FBECDBFDF91CF91CA
:100160001F910F91FF9008950F931F93CF93DF93EB
:100170000F92CDB7DEB78C0108C0F80181918F01D5
:1001800069830E946600698161506623B1F70F9010
:10019000DF91CF911F910F9108951F920F920FB68B
:1001A0000F9211248F939F93EF93FF93E091490156
:1001B000F0E0E75DFE4F80818093C60080914901A9
:1001C0008F5F8F718093490190914901809128013F
:1001D000981729F48091C1008F7D8093C100FF9111
:1001E000EF919F918F910F900FBE0F901F901895D8
:1001F0008091060190910701891B08958091070164
:10020000E8E0F1E0E80FF11D8081E1ECF0E09081A1
:100210009F779083909107019F5F9F719093070153
:1002200090819068908308951F920F920FB60F925D
:1002300011248F939F93EF93FF93909106018091E8
:10024000C600E8E0F1E0E90FF11D8083809106012E
:100250008F5F8F7180930601FF91EF919F918F9136
:100260000F900FBE0F901F901895CF93DF93EC0166
:1002700002C00E94660089918823D9F7DF91CF914F
:100280000895CF93DF93CDB7DEB7C054D0400FB6FB
:10029000F894DEBF0FBECDBF569A0E9453007894EB
:1002A0008E010F5F1F4F80E0E82E81E0F82E94E66C
:1002B000A92EB12C20E4D22E00D000D000D0EDB772
:1002C000FEB73196ADB7BEB712961C930E93119739
:1002D000F382E282B582A4820E94A4018DB79EB708
:1002E00006960FB6F8949EBF0FBE8DBFC8010E9440
:1002F0003501A3ECB9E01197F1F700C000008BB114
:100300008D258BB9D9CFFB019F01E8944230C4F011
:100310004532B4F44A3029F497FB1EF49095819548
:100320009F4F642F77270E945404805D8A330CF01E
:10033000895D8193CB010097A1F716F45DE251939B
:100340001082C9010C94BA03AEE0B0E0EAEAF1E031
:100350000C9476040D891E8986E08C831A830983A8
:100360008FEF9FE79E838D83AE01475E5F4FCE0187
:1003700001966F89788D0E94C601EF81F885E00FA4
:10038000F11F10822E96E4E00C949204ADE0B0E0F0
:10039000ECECF1E00C9468043C017D876C875A0119
:1003A000FC0117821682838181FFC8C12E01089447
:1003B000411C511CF3019381EC85FD8593FD8591D2
:1003C00093FF8191FD87EC87882309F4B3C18532BF
:1003D00041F493FD859193FF8191FD87EC878532F0
:1003E00029F490E0B3010E94CA03E4CFFF24EE2475
:1003F00010E01032B0F48B3269F08C3228F4803285
:1004000051F0833271F40BC08D3239F0803349F4EE
:1004100011602CC01260146029C0186027C01061E0
:1004200025C017FD2EC0282F20532A3098F416FF20
:1004300008C08F2D880FF82EFF0CFF0CF80EF20E5F
:1004400015C08E2D880FE82EEE0CEE0CE80EE20E95
:1004500010620CC08E3221F416FD6CC1106406C00F
:100460008C3611F4106802C0883659F4EC85FD858D
:1004700093FD859193FF8191FD87EC87882309F097
:10048000B8CF982F9554933018F09052933038F499
:1004900024E030E0A20EB31E3FE339830FC0833661
:1004A00031F0833781F0833509F05AC022C0F5015D
:1004B0008081898322E030E0A20EB31E21E0C22EAB
:1004C000D12C420114C092E0292E312C2A0C3B1C65
:1004D000F5018080918016FF03C06F2D70E002C08F
:1004E0006FEF7FEFC4010E94AF036C0151011F77D2
:1004F00015C082E0282E312C2A0C3B1CF50180808F
:10050000918016FF03C06F2D70E002C06FEF7FEF88
:10051000C4010E94A4036C011068510113FD1CC0AA
:1005200006C080E290E0B3010E94CA03EA948E2DD7
:1005300090E0C816D906A8F30FC0F40117FD859105
:1005400017FF81914F0190E0B3010E94CA03E110AF
:10055000EA940894C108D108C114D10471F7E7C026
:10056000843611F0893651F5F50117FF07C08081F7
:100570009181A281B38124E030E008C08081918123
:10058000AA2797FDA095BA2F22E030E0A20EB31E55
:10059000012F0F76B7FF08C0B095A0959095819573
:1005A0009F4FAF4FBF4F0068BC01CD01A2012AE0B1
:1005B00030E00E94F603D82ED4183FC0853721F4CE
:1005C0001F7E2AE030E020C0197F8F36A9F08037E7
:1005D00020F4883509F0AEC00BC0803721F0883791
:1005E00009F0A8C001C0106114FF09C0146007C061
:1005F00014FF08C0166006C028E030E005C020E106
:1006000030E002C020E132E0F50117FF07C0608151
:1006100071818281938144E050E006C060817181E4
:1006200080E090E042E050E0A40EB51EA2010E94DE
:10063000F603D82ED418012F0F7706FF09C00E7FBE
:10064000DF1430F404FF06C002FD04C00F7E02C0B8
:100650001D2D01C01F2D802F90E004FF0CC0FE0156
:10066000ED0DF11D2081203311F4097E09C002FF38
:1006700006C01E5F05C086789070009709F01F5F66
:10068000802E992403FD12C000FF0DC0FD2C1E1505
:1006900050F4FE0CF11A1E2D06C080E290E0B3016A
:1006A0000E94CA031F5F1E15C0F304C01E1510F47C
:1006B000E11A01C0EE2484FE0FC080E390E0B30194
:1006C0000E94CA0382FE1FC081FE03C088E590E03D
:1006D00010C088E790E00DC0C40186789070009744
:1006E00091F081FC02C080E201C08BE207FD8DE247
:1006F00090E0B3010E94CA0306C080E390E0B3011A
:100700000E94CA03FA94DF14C0F3DA94F201ED0DEB
:10071000F11D808190E0B3010E94CA03DD20A9F79A
:1007200006C080E290E0B3010E94CA03EA94EE2082
:10073000C1F740CEF3018681978102C08FEF9FEF12
:100740002D96E2E10C948404FC0105906150704008
:100750000110D8F7809590958E0F9F1F0895FC018A
:100760006150704001900110D8F7809590958E0FE0
:100770009F1F0895DC01FC01672F71917723E1F73A
:10078000329704C07C916D9370836291AE17BF075E
:10079000C8F308950F931F93CF93DF938C01EB0160
:1007A0008B8181FF1BC082FF0DC02E813F818C8118
:1007B0009D812817390764F4E881F9810193F98351
:1007C000E88306C0E885F985802F0995009731F404
:1007D0008E819F8101969F838E8302C00FEF1FEF52
:1007E000C801DF91CF911F910F910895FA01AA27B7
:1007F000283051F1203181F1E8946F936E7F6E5F64
:100800007F4F8F4F9F4FAF4FB1E03ED0B4E03CD011
:10081000670F781F891F9A1FA11D680F791F8A1FF4
:10082000911DA11D6A0F711D811D911DA11D20D05B
:1008300009F468943F912AE0269F11243019305D15
:100840003193DEF6CF010895462F4770405D419306
:10085000B3E00FD0C9F7F6CF462F4F70405D4A3353
:1008600018F0495D31FD4052419302D0A9F7EACF1B
:10087000B4E0A6959795879577956795BA95C9F74A
:1008800000976105710508959B01AC010A2E06943D
:100890005795479537952795BA95C9F7620F731FF6
:1008A000841F951FA01D0895AA1BBB1B51E107C003
:1008B000AA1FBB1FA617B70710F0A61BB70B881FF0
:1008C000991F5A95A9F780959095BC01CD0108957F
:1008D0002F923F924F925F926F927F928F929F9250
:1008E000AF92BF92CF92DF92EF92FF920F931F933E
:1008F000CF93DF93CDB7DEB7CA1BDB0B0FB6F894EF
:10090000DEBF0FBECDBF09942A88398848885F842E
:100910006E847D848C849B84AA84B984C884DF809F
:10092000EE80FD800C811B81AA81B981CE0FD11D83
:100930000FB6F894DEBF0FBECDBFED010895F89459
:02094000FFCFE7
:0609420025640A0D00000F
:00000001FF
